:100000000C9407010C9424010C9424010C942401F9
:100010000C9424010C9426010C9446010C942401A8
:100020000C9424010C9424010C9424010C942401BC
:100030000C9424010C9466010C9424010C9424016A
:100040000C9424010C9424010C9424010C9424019C
:100050000C9424010C9424010C9424010C9424018C
:100060000C9424010C9424010C9424010C9424017C
:100070000C9424010C9424010C94240105A84CCD6B
:10008000B2D44EB93836A9020C50B9918688083CD2
:10009000A6AAAA2ABE000000803F6E616E00696EAB
:1000A000660000407A10F35A00A0724E1809001042
:1000B000A5D4E80000E87648170000E40B540200DD
:1000C00000CA9A3B000000E1F50500008096980008
:1000D000000040420F000000A08601000000102731
:1000E00000000000E80300000000640000000000C1
:1000F0000A00000000000100000000002C76D888F3
:10010000DC674F0823DFC1DFAE59E1B1B796E5E305
:10011000E453C63AE651997696E8E6C28426EB891E
:100120008C9B62ED407C6FFCEFBC9C9F40F2BAA5BB
:100130006FA5F490055A2AF75C936B6CF9676DC153
:100140001BFCE0E40D47FEF520E6B500D0ED902E57
:100150000300943577050080841E080000204E0AB5
:10016000000000C80C333333330F986E12831141F3
:10017000EF8D2114893BE65516CFFEE6DB18D184BE
:100180004B381BF77C1D901DA4BBE42420328472E5
:100190005E228100C9F124ECA1E53D2725640925F3
:1001A00064090925640920202564090925372E33AF
:1001B00066090925372E3366090925372E33660A65
:1001C000006364696E6F70737578585B6566674528
:1001D000464700616E006E66696E69747900CDCC29
:1001E000CC3D0AD7233C17B7D13877CC2B32959525
:1001F000E6241FB14F0A000020410000C842004021
:100200001C4620BCBE4CCA1B0E5AAEC59D741124A0
:100210001FBECFEFD0E1DEBFCDBF11E0A0E0B1E067
:10022000EEE4F7E202C005900D92A43CB107D9F7C5
:1002300022E0A4ECB1E001C01D92A830B207E1F7C2
:100240000E9452060C94A5130C9400001F920F926A
:100250000FB60F9211248F939F938091E401909198
:10026000E50101969093E5018093E4018091E2011C
:100270009091E30101969093E3018093E2019F91B5
:100280008F910F900FBE0F901F9018951F920F9295
:100290000FB60F9211248F939F938091E601909156
:1002A000E70101969093E7018093E6018091E001D8
:1002B0009091E10101969093E1018093E0019F917B
:1002C0008F910F900FBE0F901F9018951F920F9255
:1002D0000FB60F9211248F939F938091C401909138
:1002E000C50101969093C5018093C4019F918F91A0
:1002F0000F900FBE0F901F90189584E291E00E941E
:10030000FB1241E050E061E070E081E090E00E948B
:1003100012052FEF8FEF95E3215080409040E1F7D9
:1003200000C000000E94DD0481E090E09093D301C2
:100330008093D2011092D1011092D001089541E032
:1003400050E060E070E081E090E00E941205809152
:10035000D2019091D301019761F534992AC08FE2BF
:1003600091E00E94FB120E94DD042FEF8FE791E3E2
:10037000215080409040E1F700C000000E94DD0461
:100380008FEF87BD88BD36990E94F20437990E948D
:1003900002050E94DD040E94DD0482E090E090935B
:1003A000D3018093D2011092D1011092D0010E940A
:1003B0005B0508958091D3018F938091D2018F9333
:1003C0008EE491E09F938F930E94B81241E050E039
:1003D00061E070E081E090E00E9412052FEF8FE76E
:1003E00096E1215080409040E1F700C000000F905E
:1003F0000F900F900F9020E030E0A9016091F10183
:100400007091F2018091F3019091F4010E94970E96
:1004100081112AC020E030E0A9016091ED017091C6
:10042000EE018091EF019091F0010E94970E8111F1
:100430001BC00E94DD042FEF8FEF9CE22150804013
:100440009040E1F700C000000E94DD04369B03C02D
:100450000E94F20403C037990E94020583E090E0F5
:100460009093D3018093D2010895369B03C00E94DC
:100470005C0503C037990E94D3050E94C00408950B
:1004800041E050E060E070E081E090E00E94120501
:10049000349903C08FEF87BD88BD089586179707ED
:1004A00081F0681779073CF487B58F3F51F087B525
:1004B0008D5F87BD089587B58B3018F087B5835061
:1004C00087BD08954F925F926F927F928F929F9215
:1004D000AF92BF92CF92DF92EF92FF92CF93DF93D2
:1004E000CDB7DEB72C970FB6F894DEBF0FBECDBFE9
:1004F0002FEF8FE39BE0215080409040E1F700C058
:10050000000020ED3FE049E45FE36091000170915D
:10051000010180910201909103010E943F104B0163
:100520005C016091E2017091E301072E000C880BE1
:10053000990B0E944B0FA50194010E943F10698303
:100540007A838B839C836093E9017093EA018093A3
:10055000EB019093EC016091E4017091E501072EAD
:10056000000C880B990B0E944B0FA50194010E946F
:100570003F106D837E838F8398876093F50170931E
:10058000F6018093F7019093F80189819A81AB81FC
:10059000BC818093F1019093F201A093F301B09399
:1005A000F4016091E0017091E101072E000C880BCD
:1005B000990B0E944B0FA50194010E943F106B0103
:1005C0007C016093FD017093FE018093FF01909385
:1005D00000026091E6017091E701072E000C880B84
:1005E000990B0E944B0FA50194010E943F1069874F
:1005F0007A878B879C876093F9017093FA018093C7
:10060000FB019093FC01C092ED01D092EE01E092CB
:10061000EF01F092F0018090DC019090DD01A0905C
:10062000DE01B090DF0129813A814B815C81C701F5
:10063000B6010E942A0E20910401309105014091DB
:100640000601509107010E94A10EA50194010E948C
:100650002B0E6093DC017093DD018093DE0190939B
:10066000DF01A701960169817A818B819C810E94BB
:100670002A0E6B017C0120E030E040E05FE30E9445
:100680003F104B015C016091DC017091DD018091B4
:10069000DE019091DF010E949C0E9B01AC01409015
:1006A000D8015090D9016090DA017090DB01C5014A
:1006B000B4010E943F10A30192010E942B0E60938F
:1006C000D8017093D9018093DA019093DB01609196
:1006D000DC017091DD018091DE019091DF010E94CB
:1006E000AC109B01AC014090D4015090D5016090BA
:1006F000D6017090D701C501B4010E943F10A3013B
:1007000092010E942B0E6093D4017093D5018093C7
:10071000D6019093D70129853A854B855C856D81FB
:100720007E818F8198850E942B0E20E030E040E092
:100730005FE30E943F106093C6017093C7018093EE
:10074000C8019093C901C092CC01D092CD01E09232
:10075000CE01F092CF018091E4019091E5012091CA
:10076000E6013091E701821B930B9093CB018093BC
:10077000CA018AE090E00E94F41286E691E00E94AD
:10078000FB12A090E601B090E7018090E401909008
:10079000E50168B477B429813A814B815C81C70156
:1007A000B6010E94A10E20E030E048EC52E40E9425
:1007B0003F109F938F937F936F938091F0018F935E
:1007C0008091EF018F938091EE018F938091ED01E5
:1007D0008F938091F4018F938091F3018F93809197
:1007E000F2018F938091F1018F93BF92AF929F920C
:1007F0008F921F926F921F927F928CE991E09F934C
:100800008F930E94CE128AE090E00E94F4126091D1
:10081000ED017091EE018091EF019091F0010E9445
:10082000130F6B017C016091F1017091F2018091D5
:10083000F3019091F4010E94130FDC01CB01B6018A
:100840000E944E020FB6F894DEBF0FBECDBF80915E
:10085000E801823021F128F4882349F0813099F0B1
:100860003BC08430A1F138F18530A1F135C00E9440
:100870007D018091D2019091D301019769F581E0CA
:100880008093E80129C00E949F018091D20190913C
:10089000D301029709F582E08093E8011DC00E9410
:1008A000DA018091D2019091D3010397A9F483E0FA
:1008B0008093E80111C00E9435028091D20190918D
:1008C000D301049749F484E08093E80105C00E94B5
:1008D000400202C00E9435028091D0019091D10166
:1008E00001969093D1018093D0011092E301109270
:1008F000E2011092E1011092E0012C960FB6F894FB
:10090000DEBF0FBECDBFDF91CF91FF90EF90DF90A4
:10091000CF90BF90AF909F908F907F906F905F909F
:100920004F900895CF92DF92EF92FF926B017C017E
:1009300016BC83EA84BD83E085BD2091C601309159
:10094000C7014091C8015091C901C701B6010E9479
:100950003A10882384F00E946202A70196016091F8
:10096000C6017091C7018091C8019091C9010E9490
:10097000970E181684F7FF90EF90DF90CF900895B0
:1009800080E285B98AEA87BD82E788BD2FEF8FE3D1
:100990009BE0215080409040E1F700C0000084EAD5
:1009A00088BD81E080930102089584E085B98AEAD8
:1009B00087BD88BD10920102089584EA91E00E94EB
:1009C000FB1280910102811106C00E94C00481E0E7
:1009D000809301020895813021F40E94D504109281
:1009E0000102089588E787BD8FEF88BD2FEF3FE3B1
:1009F0009DE1215030409040E1F700C0000087BDEC
:100A000088BD08958FEF87BD98E798BD2FEF3FE32E
:100A10009DE1215030409040E1F700C0000087BDCB
:100A200088BD08951F93CF93DF93EA01892B79F056
:100A300033990DC087B592E397BD2FEF3FE794E060
:100A4000215030409040E1F700C0000087BD672B87
:100A5000E9F034991BC01FEF17BD18BD2FEF3FEB16
:100A600081E2215030408040E1F700C000000E9448
:100A7000D5049FEF2FEB31E2915020403040E1F759
:100A800000C0000017BD18BD0E94C004CD2B79F036
:100A900035990DC088B596E498BD9FEF2FE734E0F7
:100AA000915020403040E1F700C0000088BDDF9148
:100AB000CF911F910895089598B587B51F929F9380
:100AC0001F928F938EEA91E09F938F930E94B812AA
:100AD0000F900F900F900F900F900F9033991AC0B6
:100AE0008FEF87BD88BD29E989E993E021508040D7
:100AF0009040E1F7000082E387BD22E383EB92E0C0
:100B0000215080409040E1F700C000C08AEA87BDD4
:100B100084EA88BD8091D0019091D101449704F579
:100B200080E988BD34993EC00E94DD042FEF8FEF2D
:100B30009CE2215080409040E1F700C000000E94FC
:100B4000DD0487B58A5087BD2FEF8FEF98E02150E5
:100B500080409040E1F700C000008AEA87BD089518
:100B600080E988BD34991EC00E94DD042FEF8FEF0D
:100B70009CE2215080409040E1F700C000000E94BC
:100B8000DD0487B5865F87BD88B58E5188BD2FEFA0
:100B90008FEF98E0215080409040E1F700C00000C6
:100BA0008AEA87BD089598B587B51F929F931F92D3
:100BB0008F938EEA91E09F938F930E94B8120F90CB
:100BC0000F900F900F900F900F9035991AC08FEFE4
:100BD00087BD88BD29E989E993E021508040904094
:100BE000E1F7000082E388BD22E383EB92E021502D
:100BF00080409040E1F700C000C08AEA87BD84EAE7
:100C000088BD8091D0019091D101449704F586E987
:100C100087BD34993EC00E94DD042FEF8FEF9CE228
:100C2000215080409040E1F700C000000E94DD04A8
:100C300088B58A5088BD2FEF8FEF98E02150804013
:100C40009040E1F700C0000084EA88BD089586E97D
:100C500087BD34991EC00E94DD042FEF8FEF9CE208
:100C6000215080409040E1F700C000000E94DD0468
:100C700088B5865F88BD87B58E5187BD2FEF8FEF12
:100C800098E0215080409040E1F700C0000084EAE5
:100C900088BD089578940E948B06E4E6F0E0808198
:100CA000808308952FEF8FEF9CE221508040904089
:100CB000E1F700C000008CE384B984E085B91092AC
:100CC000010217B880E88AB986E08093680081E065
:100CD00080936C0080936D008AEA87BD88BD0E9476
:100CE0004A0660E070E088EC91E40E949204F9CF3B
:100CF000E0ECF0E0908195FFFDCF8093C60080E0AE
:100D000090E00895E0ECF0E080818823ECF780919A
:100D1000C60090E0089588E18093C10087E090E0EC
:100D20009093C5008093C400E2E0F2E086E191E098
:100D30009383828388E091E091838083089520FDEE
:100D400009C0FC0123FD05C022FF02C0738362833A
:100D500051834083089544FD17C046FD17C0AB0181
:100D6000BC01DA01FB01AA0FBB1FEE1FFF1F10948D
:100D7000D1F74A0F5B1F6E1F7F1FCB01BA01660FB1
:100D8000771F881F991F09C033E001C034E0660F48
:100D9000771F881F991F3150D1F7620F711D811D78
:100DA000911D08950F931F93CF93DF938C01C8017A
:100DB0000E943E12EC0197FD08C00E940C12892B84
:100DC000B1F7B801CE010E942B13CE01DF91CF9174
:100DD0001F910F910895A0E0B0E0E1EFF6E00C94D0
:100DE00003117C018B016A01D22F0E943E129C01EB
:100DF00033272B32310521F02D32310559F4D068DB
:100E00000150110911F480E06BC0C7010E943E122D
:100E100097FDF9CFCD2FCD7F2D2F207319F580337E
:100E200009F5580181E0A81AB10809F445C0C701C5
:100E30000E943E1297FD40C09C012F7D332728352C
:100E4000310551F4C26402501109B1F1C7010E9489
:100E50003E1297FF07C030C0D6FF02C0C26001C07B
:100E6000C2618501812C912C540120ED280F28307E
:100E700080F0C4FF04C0B7010E942B131AC02A30AF
:100E800040F0C6FFF8CF2F7D3FEE320F363098F797
:100E900027504C2FC501B4010E94AB064B015C01E9
:100EA000C2600150110959F0C7010E943E1297FF1C
:100EB000DCCFC1FD04C0A7CF812C912C5401C7FF0A
:100EC00008C0B094A09490948094811C911CA11CA3
:100ED000B11C2C2FB501A401C6010E949F0681E020
:100EE000CDB7DEB7ECE00C941F11A0E2B0E0EBE769
:100EF000F7E00C94FF105C014B017A018E010F5F4B
:100F00001F4F680180E2F80111928A95E9F7F50117
:100F1000538040E050E0612C90E0712CA1E0B0E003
:100F2000F90153FC859153FE81918F01482E9F0159
:100F3000811103C080E090E096C08E3519F4411510
:100F4000510551F1672D70E0641775073CF48D353C
:100F500061F18D3219F4992311F103C0992309F439
:100F60006DC0842D869586958695F601E80FF11D56
:100F7000842D87708D0102C0000F111F8A95E2F742
:100F8000C8019081892B8083641459F0461410F4B1
:100F90004394E7CF4A94E5CF7724739403C091E05C
:100FA00001C090E04F5F5F4FBBCF992319F08E8156
:100FB00080628E83711003C07724739419C0F60188
:100FC0009E012F5D3F4F8081809581932E173F07B3
:100FD000D1F7F2CFE114F10431F0F7018083B701CA
:100FE0006F5F7F4F7B0171E0871A9108712CF9F0D8
:100FF000C5010E943E1297FD18C0FC01FF2723E0A7
:10100000F595E7952A95E1F7EC0DFD1D208130E07F
:10101000AC014770552702C0359527954A95E2F7F0
:1010200020FDD8CFB5010E942B13711083CFE1149E
:10103000F10411F0F7011082C80115C0682F669500
:1010400066956695F601E60FF11D682F67708D01B4
:1010500002C0000F111F6A95E2F7B8017081672B7B
:101060006083682E9FCFA096E0E10C941B112F9215
:101070003F924F925F926F927F929F92AF92BF92F8
:10108000CF92DF92EF92FF920F931F93CF93DF9354
:101090006C018B011A010E943E12EC0199278B32E0
:1010A000910529F08D9781F430E8932E01C0912CA1
:1010B0000150110911F480E00CC1C6010E943E12DA
:1010C000EC0197FF02C0F7CF912CCE010E941512C0
:1010D0008936910531F08E36910599F5C3EDD1E051
:1010E00002C0C6EDD1E02196FE013197B490BB203D
:1010F000C9F00150110991F0C6010E943E127C0115
:1011000097FD0CC00E9415129927EB2DF0E08E1769
:101110009F0749F3B601C7010E942B13C95DD14057
:1011200051F603C0C65DD14029F080E090E0A0E810
:10113000BFE704C080E090E0A0ECBFE7BC01CD01B8
:10114000B8C0412C512C3201E12CF12C2C2F205312
:101150002A3010F5E92DE260BE2E892D887092FEAE
:1011600006C0811120C0FFEFEF1AFF0A1CC08823C0
:1011700019F081E0E81AF10840E2C301B2010E94CF
:10118000AB062B013C01683979498949994158F0EE
:10119000F92DF660BF2E07C02E3F89F493FC0FC0D7
:1011A000292D2860B22E0150110941F0C6010E947C
:1011B0003E12EC019B2C97FFC9CF01C09B2C91FEE6
:1011C0007ACFCE018F7D99278534910509F042C0F1
:1011D000580181E0A81AB10809F46DCFC6010E9438
:1011E0003E12EC0197FD67CF99278B32910529F0CC
:1011F0008D9769F4E92DE0619E2E5801F2E0AF1A57
:10120000B10809F458CFC6010E943E12EC01CE018C
:10121000C0970A9708F04FCF8501A12CB12CB501DA
:10122000BB0C880B990B2C2F205340E20E94AB067D
:101230005B010150110939F0C6010E943E12EC0118
:10124000C0970A9760F394FE03C0B194A194B108CB
:10125000EA0CFB1C012B31F0D7FD04C0B601CE0116
:101260000E942B13C301B2010E94490FF7FE06C072
:10127000F194E194F108C2EFD1E002C0CAE0D2E0FB
:101280006E0128E1C21AD10800E210E0E016F10672
:1012900050F0FE0125913591459154910E943F10E7
:1012A000E01AF10AF3CF249716950795CC16DD06C0
:1012B00069F797FE05C0DC01CB01B058BC01CD0138
:1012C0002114310429F0F1016083718382839383B7
:1012D00081E0DF91CF911F910F91FF90EF90DF9010
:1012E000CF90BF90AF909F907F906F905F904F9006
:1012F0003F902F900895A0E0B0E0E1E8F9E00C9471
:1013000001115C01EB014A01FC0117821682612C7C
:10131000F5010381FE0103FD859103FF8191182FE3
:10132000EF01882309F40FC190E00E940C12892B71
:1013300021F0C5010E94D206EBCF153241F4FE0127
:1013400003FD159103FF1191EF01153281F4C501E1
:101350000E943E1297FDF5C0412F50E09C013327BB
:1013600024173507A9F2B5010E942B13ECC01A32DD
:1013700041F403FD159103FF1191EF01772473945C
:1013800001C0712CE12CF12C20ED210F2A3088F4C2
:10139000F72DF2607F2EB70180E090E040E20E94DE
:1013A000AB067B01FE0103FD159103FF1191EF01D7
:1013B000EBCF71FE04C0E114F10421F4C4C0EE24AB
:1013C000EA94FE2C183619F01C3661F014C0FE01A8
:1013D00003FD159103FF1191EF01183661F4872D7C
:1013E0008860782E972D9460792EFE0103FD15916B
:1013F00003FF1191EF01112309F4A5C0612F70E0E3
:1014000081EC91E00E941D12892B09F49CC070FCB4
:1014100007C0F401C080D180C40102964C0102C013
:10142000C12CD12C1E3651F4F5014681578160E064
:1014300070E0272DC6010E949F066ACF1336B9F4CB
:1014400071FC03C0EE24E394F12CC5010E943E120E
:1014500097FD77C0C114D10429F0F6018083C6013D
:1014600001966C0191E0E91AF10879F766C01B3525
:1014700059F49E01A601B701C5010E947507EC0150
:10148000892B09F05AC054C0C5010E94D20697FDAD
:1014900058C01F36E1F140F41436A9F11936D1F1E4
:1014A000183509F03EC02BC01337A9F018F41037D7
:1014B00031F137C0153739F1183709F132C0C1148D
:1014C000D10429F0F6010083C60101966C0191E078
:1014D000E91AF10871F0C5010E943E128C0197FDD6
:1014E00008C00E940C12892B51F3B501C8010E945B
:1014F0002B13C114D10409F1F60110821EC0F72D7F
:10150000F0647F2E07C0872D8062782E03C0972D50
:101510009061792E272DA601B701C5010E94EB0627
:1015200005C0A601B701C5010E943708811105C099
:10153000F5018381807329F406C070FCE9CE6394C1
:10154000E7CE662019F0862D90E002C08FEF9FEF66
:10155000CDB7DEB7EEE00C941D11A0E1B0E0E3EBF7
:10156000FAE00C94FD107C011B016A01FC0117825A
:101570001682838181FF44C39E012F5F3F4F390153
:10158000F7019381F10193FD859193FF81911F01F3
:10159000882309F431C3853239F493FD859193FF93
:1015A00081911F01853239F4B70190E00E947C12CD
:1015B00056016501E5CF10E0512C912CFFE1F915A2
:1015C000D8F08B3279F038F4803279F08332A1F49C
:1015D000F92DF0612EC08D3261F0803369F4292D30
:1015E00021602DC0392D3260932E892D8460982E74
:1015F0002AC0E92DE86015C097FC2DC020ED280F0A
:101600002A3088F496FE06C03AE0139F200D11247C
:10161000122F19C08AE0589E200D1124522EE92D58
:10162000E0629E2E10C08E3231F496FCE5C2F92D98
:10163000F0649F2E08C08C3621F4292D2068922E4C
:1016400002C0883641F4F10193FD859193FF8191A9
:101650001F018111B3CF9BEB980F933020F4992D8C
:101660009061805E07C09BE9980F933008F066C1D7
:10167000992D9F7E96FF16E09F73992E853619F45B
:101680009064992E08C0863621F4392F3068932E45
:1016900002C01111115097FE07C01C3350F44424AE
:1016A0004394410E27E00BC0183038F027E017E0D4
:1016B00005C027E09CE3492E02C0212F412C560192
:1016C00084E0A80EB11CF601608171818281938152
:1016D000042DA3010E9434116C01F981FC87F0FFF5
:1016E00002C0F3FF06C091FC06C092FE06C000E2F5
:1016F00005C00DE203C00BE201C000E08C858C70D8
:1017000019F001115AC29BC297FE10C04C0CFC8507
:10171000F4FF04C08A81813309F44A94141474F5E7
:1017200028E0241578F588E0482E2CC096FC2AC0C5
:10173000812F90E08C159D059CF03CEFC3163FEF88
:10174000D30674F0892D8068982E0AC0E2E0F0E09C
:10175000EC0FFD1FE10FF11D8081803319F4115052
:101760001111F4CF97FE0EC044244394410E812FF3
:1017700090E0C816D9062CF41C1904C044244394E4
:1017800001C010E097FE06C01C141D0434F4C6010D
:10179000019605C085E090E002C081E090E0011173
:1017A0000196112331F0212F30E02F5F3F4F820F40
:1017B000931F252D30E08217930714F4581A01C0A7
:1017C000512C892D897049F4552039F0B70180E2F8
:1017D00090E00E947C125A94F7CF002329F0B701C1
:1017E000802F90E00E947C1293FC09C0552039F0B4
:1017F000B70180E390E00E947C125A94F7CF97FEE5
:101800004CC04601D7FE02C0812C912CC60188191C
:101810009909F301E80FF91FFE87ED879601241956
:101820003109388B2F87012F10E01195019511098F
:101830003FEF8316930629F4B7018EE290E00E94F1
:101840007C12C814D9044CF08F85988988159905A5
:1018500024F4ED85FE85818101C080E3F1E08F1ADB
:1018600091082D853E852F5F3F4F3E872D8780163F
:1018700091062CF0B70190E00E947C12D9CFC814D9
:10188000D90441F49A81963320F4953319F43C85B8
:1018900034FF81E3B70190E04EC08A81813319F0B3
:1018A0009C859F7E9C87B70190E00E947C1211115D
:1018B00005C094FC18C085E690E017C0B7018EE221
:1018C00090E00E947C121E5F82E001E0080FF301AD
:1018D000E80FF11D8081B70190E00E947C12802FFB
:1018E0000113F3CFE6CF85E490E0B7010E947C12AC
:1018F000D7FC06C0C114D10441F4EC85E4FF05C057
:10190000D194C194D1088DE201C08BE2B70190E07F
:101910000E947C1280E32AE0C216D1042CF08F5F73
:10192000FAE0CF1AD108F7CFB70190E00E947C12FD
:10193000B701C601C0960E947C1254C1833631F0B3
:10194000833779F0833509F056C020C0560132E064
:10195000A30EB11CF6018081898301E010E06301D0
:1019600012C05601F2E0AF0EB11CF601C080D1806A
:1019700096FE03C0612F70E002C06FEF7FEFC601DB
:101980000E9433128C01F92DFF7714C0560122E01A
:10199000A20EB11CF601C080D18096FE03C0612F5B
:1019A00070E002C06FEF7FEFC6010E9428128C0129
:1019B000F92DF0689F2EF3FD1AC0852D90E00817D1
:1019C0001907A8F4B70180E290E00E947C125A94B3
:1019D000F4CFF60197FC859197FE81916F01B701D5
:1019E00090E00E947C1251105A9401501109011587
:1019F000110579F7F7C0843611F0893661F5560183
:101A000097FE09C024E0A20EB11CF601608171812D
:101A1000828193810AC0F2E0AF0EB11CF6016081B1
:101A20007181072E000C880B990BF92DFF769F2EE4
:101A300097FF09C090958095709561957F4F8F4F66
:101A40009F4FF0689F2E2AE030E0A3010E944413CC
:101A5000C82EC6183FC0092D853721F40F7E2AE015
:101A600030E01DC0097F8F3691F018F4883559F0A9
:101A7000C3C0803719F0883711F0BEC0006104FF81
:101A800009C0046007C094FE08C0066006C028E0D4
:101A900030E005C020E130E002C020E132E0560134
:101AA00007FF09C084E0A80EB11CF60160817181B6
:101AB0008281938108C0F2E0AF0EB11CF601608113
:101AC000718180E090E0A3010E944413C82EC618E3
:101AD0000F77902E96FE0BC0092D0E7FC11650F485
:101AE00094FE0AC092FC08C0092D0E7E05C0DC2CB5
:101AF000092D03C0DC2C01C0D12E04FF0DC0FE0156
:101B0000EC0DF11D8081803311F4097E09C002FFC4
:101B100006C0D394D39404C0802F867809F0D39460
:101B200003FD11C000FF06C01C2DD51480F4150D57
:101B30001D190DC0D51458F4B70180E290E00E9441
:101B40007C12D394F7CFD51410F45D1801C0512C3A
:101B500004FF10C0B70180E390E00E947C1202FFF6
:101B600017C001FD03C088E790E002C088E590E05F
:101B7000B7010CC0802F867859F001FF02C08BE2BC
:101B800001C080E207FD8DE2B70190E00E947C1267
:101B9000C11638F4B70180E390E00E947C12115026
:101BA000F7CFCA94F301EC0DF11D8081B70190E0ED
:101BB0000E947C12C110F5CF15C0F4E0F51560F558
:101BC00084E0581A93FE1FC0011127C02C8523FF03
:101BD0002AC00AE910E0392D3071932EF801849162
:101BE000811124C0552009F4E4CCB70180E290E0D3
:101BF0000E947C125A94F6CFF7018681978126C005
:101C00008FEF9FEF23C0B70180E290E00E947C122B
:101C10005A945110F8CFD8CF512CB701802F90E0B3
:101C20000E947C12D3CF0EE910E0D5CF91108052E4
:101C3000B70190E00E947C120F5F1F4FCFCF23E0CF
:101C4000251510F483E0BDCF512CC0CF6096E2E1A2
:101C50000C9419115058BB27AA270E94420E0C94CD
:101C6000EC0F0E94B30F38F00E94BA0F20F039F445
:101C70009F3F19F426F40C94B00F0EF4E095E7FBA7
:101C80000C94AA0FE92F0E94111058F3BA1762079B
:101C900073078407950720F079F4A6F50C943310A8
:101CA0000EF4E0950B2EBA2FA02D0B01B901900177
:101CB0000C01CA01A0011124FF27591B99F0593FBB
:101CC00050F4503E68F11A16F040A22F232F342F03
:101CD0004427585FF3CF469537952795A795F04051
:101CE0005395C9F77EF41F16BA0B620B730B840B66
:101CF000BAF09150A1F0FF0FBB1F661F771F881F1E
:101D0000C2F70EC0BA0F621F731F841F48F4879575
:101D100077956795B795F7959E3F08F0B0CF939567
:101D2000880F08F09927EE0F9795879508950E94E0
:101D3000860F08F481E008950E94C30FE3950C9488
:101D4000FD0F0E94B50E0C94EC0F0E94BA0F58F0D4
:101D50000E94B30F40F029F45F3F29F00C94AA0FC2
:101D600051110C9434100C94B00F0E94111068F3B0
:101D70009923B1F3552391F3951B550BBB27AA2744
:101D800062177307840738F09F5F5F4F220F331F7E
:101D9000441FAA1FA9F335D00E2E3AF0E0E832D046
:101DA00091505040E695001CCAF72BD0FE2F29D049
:101DB000660F771F881FBB1F261737074807AB071B
:101DC000B0E809F0BB0B802DBF01FF2793585F4F90
:101DD0003AF09E3F510578F00C94AA0F0C94341001
:101DE0005F3FE4F3983ED4F3869577956795B79572
:101DF000F7959F5FC9F7880F911D9695879597F97D
:101E00000895E1E0660F771F881FBB1F62177307F5
:101E10008407BA0720F0621B730B840BBA0BEE1F0A
:101E200088F7E09508950E941A0F6894B1110C94F8
:101E3000341008950E94191088F09F5798F0B92F18
:101E40009927B751B0F0E1F0660F771F881F991FEF
:101E50001AF0BA95C9F714C0B13091F00E9433104E
:101E6000B1E008950C943310672F782F8827B85F5E
:101E700039F0B93FCCF3869577956795B395D9F747
:101E80003EF490958095709561957F4F8F4F9F4F51
:101E90000895E89409C097FB3EF49095809570955D
:101EA00061957F4F8F4F9F4F9923A9F0F92F96E9A6
:101EB000BB279395F695879577956795B795F1111B
:101EC000F8CFFAF4BB0F11F460FF1BC06F5F7F4FB8
:101ED0008F4F9F4F16C0882311F096E911C07723CA
:101EE00021F09EE8872F762F05C0662371F096E8D3
:101EF000862F70E060E02AF09A95660F771F881FA2
:101F0000DAF7880F9695879597F90895990F000845
:101F1000550FAA0BE0E8FEEF16161706E807F907BB
:101F2000C0F012161306E407F50798F0621B730B56
:101F3000840B950B39F40A2661F0232B242B252BD7
:101F400021F408950A2609F4A140A6958FEF811D7A
:101F5000811D089597F99F6780E870E060E008951B
:101F60009FEF80EC089500240A94161617061806B1
:101F70000906089500240A9412161306140605068D
:101F800008950C94B00F0E941910D8F3E894E0E083
:101F9000BB279F57F0F02AED3FE049EC06C0EE0F5B
:101FA000BB0F661F771F881F28F0B23A62077307BE
:101FB000840728F0B25A620B730B840BE3959A9551
:101FC00072F7803830F49A95BB0F661F771F881F11
:101FD000D2F790480C94B610092E0394000C11F41B
:101FE000882352F0BB0F40F4BF2B11F460FF04C0F4
:101FF0006F5F7F4F8F4F9F4F0895EF93E0FF07C0B4
:10200000A2EA2AED3FE049EC5FEB0E94420E0E94FB
:10201000EC0F0F90039401FC9058ECE7F0E00C9467
:10202000C21057FD9058440F551F59F05F3F71F093
:102030004795880F97FB991F61F09F3F79F087952F
:102040000895121613061406551FF2CF4695F1DFB8
:1020500008C0161617061806991FF1CF8695710548
:10206000610508940895E894BB2766277727CB017C
:1020700097F908950E94860F08F48FEF08950E9443
:1020800052100C94EC0F0E94B30F38F00E94BA0F5C
:1020900020F0952311F00C94AA0F0C94B00F11248A
:1020A0000C9434100E94111070F3959FC1F3950F9A
:1020B00050E0551F629FF001729FBB27F00DB11DCC
:1020C000639FAA27F00DB11DAA1F649F6627B00D5C
:1020D000A11D661F829F2227B00DA11D621F739F45
:1020E000B00DA11D621F839FA00D611D221F749F53
:1020F0003327A00D611D231F849F600D211D822F9A
:10210000762F6A2F11249F5750409AF0F1F08823C0
:102110004AF0EE0FFF1FBB1F661F771F881F9150ED
:102120005040A9F79E3F510580F00C94AA0F0C94E3
:1021300034105F3FE4F3983ED4F386957795679526
:10214000B795F795E7959F5FC1F7FE2B880F911D17
:102150009695879597F908959F930E94C30F0F90C6
:1021600007FCEE5F0C94FD0F9F3F31F0915020F47F
:10217000879577956795B795880F911D9695879563
:1021800097F908959F938F937F936F93FF93EF93A6
:102190009B01AC010E943F10EF91FF910E94D6106D
:1021A0002F913F914F915F910C943F10DF93CF930C
:1021B0001F930F93FF92EF92DF927B018C01689443
:1021C00006C0DA2EEF010E945210FE01E894A5919C
:1021D0002591359145915591A6F3EF010E94420E4C
:1021E000FE019701A801DA9469F7DF90EF90FF9064
:1021F0000F911F91CF91DF9108952F923F924F92AF
:102200005F926F927F928F929F92AF92BF92CF9286
:10221000DF92EF92FF920F931F93CF93DF93CDB78F
:10222000DEB7CA1BDB0B0FB6F894DEBF0FBECDBF07
:1022300009942A88398848885F846E847D848C84D8
:102240009B84AA84B984C884DF80EE80FD800C81E1
:102250001B81AA81B981CE0FD11D0FB6F894DEBFC4
:102260000FBECDBFED010895283008F027E03327D9
:10227000DA01990F311D87FD9160009661057105A6
:1022800039F432602E5F3D9330E32A95E1F70895EB
:102290009F3F30F080387105610509F03C5F3C5F7D
:1022A0003D93913008F08068911DDF93CF931F9389
:1022B0000F93FF92EF92192F987F9695E92F96959D
:1022C0009695E90FFF27E450FF4F99273327EE2417
:1022D000FF24A701E70105900894079428F4360F1E
:1022E000E71EF81E491F511D660F771F881F991F93
:1022F0000694A1F70590079428F4E70EF81E491FED
:10230000561FC11D770F881F991F661F0694A1F7DE
:102310000590079428F4F80E491F561FC71FD11DBA
:10232000880F991F661F771F0694A1F705900794E1
:1023300020F4490F561FC71FD81F990F661F771F1C
:10234000881F0694A9F784911095177041F0D695CF
:10235000C79557954795F794E7941A95C1F7E2EA20
:10236000F0E06894159015913591659195910590DF
:102370007FE27395E118F10A430B560BC90BD009A4
:10238000C0F7E10CF11E431F561FC91FD01D7EF47C
:10239000703311F48A95E6CFE894015030F0080FBD
:1023A0000AF40027021708F4202F2395022F7A330E
:1023B00028F079E37D932A95E9F710C07D932A955B
:1023C00089F6069497956795379517951794E118B0
:1023D000F10A430B560BC90BD00998F023957E9157
:1023E00073957A3308F070E37C932013B8F77E91ED
:1023F00070617D9330F0839571E37D9370E32A954E
:10240000E1F71124EF90FF900F911F91CF91DF9191
:10241000992787FD9095089591110C94A21380320D
:1024200019F089508550C8F7089591110895815485
:102430008A5108F4805E855A0895FC0105900616BD
:1024400021F00020D9F7C00108953197CF010895F8
:10245000FC010590615070400110D8F7809590956F
:102460008E0F9F1F0895FC01615070400190011074
:10247000D8F7809590958E0F9F1F0895CF93DF9387
:10248000EC012B8120FF33C026FF0AC02F7B2B835A
:102490008E819F8101969F838E838A8190E029C0DF
:1024A00022FF0FC0E881F9818081082E000C990B72
:1024B000009719F420622B831AC03196F983E883C0
:1024C0000EC0EA85FB85099597FF09C02B8101960F
:1024D00011F080E201C080E1822B8B8308C02E8145
:1024E0003F812F5F3F4F3F832E83992702C08FEF9D
:1024F0009FEFDF91CF9108950F931F93CF93DF93B9
:10250000FB01238121FD03C08FEF9FEF2CC022FF31
:1025100016C046815781248135814217530744F400
:10252000A081B1819D012F5F3F4F318320838C9328
:10253000268137812F5F3F4F3783268314C08B015D
:10254000EC01FB010084F185E02D0995892BE1F672
:10255000D80116968D919C911797019617969C938A
:102560008E931697CE01DF91CF911F910F91089511
:10257000A0E0B0E0EEEBF2E10C940D11AE014B5F88
:102580005F4FFA0161917191AF01809104029091C6
:1025900005020E94AD0AE2E00C942911A0E0B0E02F
:1025A000E4EDF2E10C940B11AE01495F5F4FDA01EB
:1025B0006D917D91AD0102E012E0F801828193817D
:1025C000DC0113962C911397286013962C930E948C
:1025D000AD0AD8011296ED91FC9113972381277FC4
:1025E0002383E4E00C9427116091040270910502AA
:1025F0000E947C1208950F931F93CF93DF93E09175
:102600000402F0910502238121FF1BC08C01D0E060
:10261000C0E0F80181918F01609104027091050280
:10262000DB011896ED91FC911997882331F00995FB
:10263000892B79F3DFEFCFEFECCF8AE00995892B77
:1026400019F08FEF9FEF02C08D2F9C2FDF91CF915C
:102650001F910F910895FB01238120FF12C026FDD9
:1026600010C08F3F3FEF930761F082832F7D20647E
:102670002383268137812150310937832683992787
:1026800008958FEF9FEF0895FA01AA27283051F19E
:10269000203181F1E8946F936E7F6E5F7F4F8F4F93
:1026A0009F4FAF4FB1E03ED0B4E03CD0670F781FF2
:1026B000891F9A1FA11D680F791F8A1F911DA11DD7
:1026C0006A0F711D811D911DA11D20D009F4689410
:1026D0003F912AE0269F11243019305D3193DEF6B8
:1026E000CF010895462F4770405D4193B3E00FD06E
:1026F000C9F7F6CF462F4F70405D4A3318F0495D59
:1027000031FD4052419302D0A9F7EACFB4E0A6953B
:102710009795879577956795BA95C9F7009761055D
:10272000710508959B01AC010A2E069457954795B3
:1027300037952795BA95C9F7620F731F841F951FA8
:0E274000A01D0895992788270895F894FFCFCB
:10274E00F4FD543B295C0F3E000000010000000028
:10275E000000820600000000000200000000780663
:10276E0000000000496E2050686173652031004DF5
:10277E006964206F72204C65667420616E6420520D
:10278E006967687420646574656374656400496E76
:10279E0020506861736520332C207475726E73201F
:1027AE003D2025640A004F43523041094F435230B9
:1027BE0042094C6566745F7469636B73095269678D
:1027CE0068745F7469636B7309565F4C6566740950
:1027DE0009565F5269676874090953706565645FCD
:1027EE0045727200526576657273696E6700487540
:1027FE006767696E67206C656674202564202D20DE
:04280E0025640A0033
:00000001FF
